:100000000C9446000C9465000C9465000C946500FB
:100010000C9465000C9465000C9465000C946500CC
:100020000C9465000C9465000C9465000C946500BC
:100030000C9465000C94D7020C9465000C94650038
:100040000C9465000C9465000C9465000C9465009C
:100050000C9465000C9465000C9465000C9465008C
:100060000C9465000C9465000C9465000C9465007C
:100070000C9465000C9465000C9465000C9465006C
:100080000C9465000C9465000C94650011241FBE4F
:10009000CFEFD0E4DEBFCDBF11E0A0E0B1E0E4E4FB
:1000A000FBE000E00BBF02C007900D92A032B10749
:1000B000D9F721E0A0E2B1E001C01D92AB34B20754
:1000C000E1F70E9481040C94A0050C940000CF93EA
:1000D000DF9300D01F92CDB7DEB789837B836A831D
:1000E00089818A3031F48A819B81BC018DE00E9434
:1000F000670080EC90E0FC018081882F90E08072A6
:100100009927892BB1F386EC90E02981FC012083AB
:1001100080E090E00F900F900F90DF91CF910895C5
:10012000CF93DF9300D01F92CDB7DEB789836A8368
:100130004B838B81882371F08A81282F30E081E006
:1001400090E002C0880F991F2A95E2F7982F8981C5
:10015000892B0EC08A81282F30E081E090E002C018
:10016000880F991F2A95E2F7982F90958981892306
:100170000F900F900F90DF91CF910895CF93DF9361
:1001800000D0CDB7DEB789836A838A81282F30E01B
:1001900081E090E002C0880F991F2A95E2F7982F1E
:1001A000898189230F900F90DF91CF910895CF938C
:1001B000DF93CDB7DEB788E290E02FEEFC0120831D
:1001C000000086E290E0FC01808160E00E94BE00B9
:1001D000882311F481E3B8C086E290E0FC018081BD
:1001E00061E00E94BE00882311F484E3ADC086E282
:1001F00090E0FC01808162E00E94BE00882311F43F
:1002000087E3A2C086E290E0FC01808163E00E9467
:10021000BE00882311F48AE297C088E290E02FEDB7
:10022000FC012083000086E290E0FC01808160E018
:100230000E94BE00882311F482E386C086E290E02B
:10024000FC01808161E00E94BE00882311F485E3F7
:100250007BC086E290E0FC01808162E00E94BE00EB
:10026000882311F488E370C086E290E0FC0180816D
:1002700063E00E94BE00882311F480E365C088E239
:1002800090E02FEBFC012083000086E290E0FC016F
:10029000808160E00E94BE00882311F483E354C093
:1002A00086E290E0FC01808161E00E94BE0088232C
:1002B00011F486E349C086E290E0FC01808162E0AF
:1002C0000E94BE00882311F489E33EC086E290E0DC
:1002D000FC01808163E00E94BE00882311F483E268
:1002E00033C088E290E02FE7FC012083000086E223
:1002F00090E0FC01808160E00E94BE00882311F440
:1003000081E422C086E290E0FC01808161E00E94ED
:10031000BE00882311F482E417C086E290E0FC015D
:10032000808162E00E94BE00882311F483E40CC047
:1003300086E290E0FC01808163E00E94BE00882399
:1003400011F484E401C080E0DF91CF910895CF9350
:10035000DF9300D000D0CDB7DEB769837A838B837B
:100360009C8389819A81AB81BC8180930E0190939B
:100370000F01A0931001B093110180910E01909193
:100380000F01A0911001B091110180932101909370
:100390002201A0932301B093240100000F900F903D
:1003A0000F900F90DF91CF910895CF93DF93CDB74A
:1003B000DEB781E890E02BE0FC01208388E890E044
:1003C0002DE730E0FC01318320838FE690E022E0CE
:1003D000FC01208384E890E0FC011182108280916E
:1003E0000E0190910F01A0911001B0911101809325
:1003F000210190932201A0932301B09324018FE562
:1004000090E02FE530E0F90120812068FC01208395
:100410000000DF91CF910895CF93DF93CDB7DEB782
:1004200081E890E0FC0110820000DF91CF910895F7
:100430000F931F93CF93DF931F92CDB7DEB719822F
:10044000A6C08981282F30E0C901880F991F820F2B
:10045000931F880F991F880F991F845D9E4FFC0181
:1004600020813181428153818981682F70E0CB01E5
:10047000880F991F860F971F880F991F880F991F44
:10048000885D9E4FFC0180819181A281B3812817F4
:1004900039074A075B0708F449C08981082F10E033
:1004A0008981282F30E0C901880F991F820F931F7F
:1004B000880F991F880F991F805D9E4FFC01408116
:1004C00051818981282F30E0C901880F991F820F3F
:1004D000931F880F991F880F991F8A5D9E4FFC01FB
:1004E00080819181FA0109959C01C801880F991FAB
:1004F000800F911F880F991F880F991F8A5D9E4F4B
:10050000FC01318320838981282F30E0C901880FC5
:10051000991F820F931F880F991F880F991F845D61
:100520009E4FFC0110821182128213828981682FF2
:1005300070E08981282F30E0C901880F991F820F50
:10054000931F880F991F880F991F845D9E4FFC0190
:1005500080819181A281B38124E630E040E050E0C7
:10056000280F391F4A1F5B1FCB01880F991F860F69
:10057000971F880F991F880F991F845D9E4FFC015C
:10058000208331834283538389818F5F898389816B
:10059000282F30E083E090E02817390708F451CF86
:1005A00000000F90DF91CF911F910F9108951F923E
:1005B0000F9200905F000F92112400905B000F9249
:1005C0002F933F934F935F936F937F938F939F935B
:1005D000AF93BF93EF93FF93CF93DF93CDB7DEB786
:1005E0008091210190912201A0912301B0912401D9
:1005F0000197A109B1098093210190932201A09351
:100600002301B09324018091210190912201A091B6
:100610002301B0912401892B8A2B8B2B91F40E940A
:10062000180280910E0190910F01A0911001B091DC
:1006300011018093210190932201A0932301B09393
:1006400024010000DF91CF91FF91EF91BF91AF9115
:100650009F918F917F916F915F914F913F912F91DA
:100660000F9000925B000F9000925F000F901F9020
:100670001895CF93DF9300D000D0CDB7DEB79C8321
:100680008B830E94D70089838B819C818230910566
:1006900059F1833091052CF4009751F0019779F0CE
:1006A0009BC08330910589F1049709F47EC094C002
:1006B0001092250181E090E09C838B838DC089811D
:1006C000833229F081E090E09C838B837EC0898116
:1006D000833209F07AC01092250110924A0182E01B
:1006E00090E09C838B8371C08981833229F482E0FE
:1006F00090E09C838B836BC08981882309F067C05D
:1007000083E090E09C838B8362C08981833249F4CB
:1007100082E090E09C838B831092250110924A0125
:1007200058C08981882349F480912501853028F4B7
:1007300083E090E09C838B8337C08981882341F1DB
:1007400080912501853020F589818A8384E090E0BD
:100750009C838B8380912501882F90E08C5E9E4F37
:10076000FC0190818A81981769F49091130181E0CE
:10077000992309F080E08093130180914A018F5FF3
:1007800080934A01809125018F5F809325010CC0E1
:1007900089818823F1F4809125018530D0F081E0B2
:1007A00090E09C838B8315C014C08981882329F035
:1007B00084E090E09C838B830EC08981882359F468
:1007C00083E090E09C838B8306C0000005C000009E
:1007D00003C0000001C000008B819C818130910525
:1007E00019F0029751F00FC080914A01853051F401
:1007F0001092120110924A0105C010924A01109203
:10080000250101C000008B819C810F900F900F90FB
:100810000F90DF91CF910895CF93DF9300D0CDB7A4
:10082000DEB79A83898389819A818130910559F055
:1008300082309105D9F0892B09F028C081E090E041
:100840009A83898323C083E290E0FC01808188231E
:1008500044F081E08093120182E090E09A838983E2
:1008600015C081E090E09A83898310C083E290E014
:10087000FC01808188232CF082E090E09A838983B8
:1008800004C081E090E09A838983000089819A8185
:10089000019709F001C0000089819A810F900F90A3
:1008A000DF91CF910895CF93DF9300D0CDB7DEB71E
:1008B0009A83898389819A81009719F0019731F091
:1008C0000AC081E090E09A83898305C081E090E0CE
:1008D0009A838983000089819A81009751F001975A
:1008E00009F008C085E290E020911201FC0120830C
:1008F00001C0000089819A810F900F90DF91CF9104
:100900000895CF93DF931F92CDB7DEB781E290E0D9
:10091000FC01108282E290E02FEFFC01208384E250
:1009200090E02FE7FC01208385E290E020E8FC01C5
:10093000208387E290E020EFFC01208388E290E0B2
:100940002FE0FC01208319828981282F30E0C90122
:10095000880F991F820F931F880F991F880F991F67
:100960008A5D9E4FFC01118210828981282F30E020
:10097000C901880F991F820F931F880F991F880F35
:10098000991F9C01285D3E4F84E690E0A0E0B0E016
:10099000F90180839183A283B3838981282F30E07A
:1009A000C901880F991F820F931F880F991F880F05
:1009B000991F845D9E4FFC01108211821282138266
:1009C0008981282F30E0C901880F991F820F931F5A
:1009D000880F991F880F991F805D9E4F29E333E090
:1009E000FC013183208389818F5F89838981282F4E
:1009F00030E0C901880F991F820F931F880F991F3C
:100A0000880F991F8A5D9E4FFC0111821082898197
:100A1000282F30E0C901880F991F820F931F880F7C
:100A2000991F880F991F9C01285D3E4F81E090E03F
:100A3000A0E0B0E0F90180839183A283B383898130
:100A4000282F30E0C901880F991F820F931F880F4C
:100A5000991F880F991F845D9E4FFC01108211829F
:100A6000128213828981282F30E0C901880F991FD3
:100A7000820F931F880F991F880F991F805D9E4FCB
:100A80002CE034E0FC013183208389818F5F8983EE
:100A90008981282F30E0C901880F991F820F931F89
:100AA000880F991F880F991F8A5D9E4FFC01118244
:100AB00010828981282F30E0C901880F991F820F89
:100AC000931F880F991F880F991F9C01285D3E4F27
:100AD00084E690E0A0E0B0E0F90180839183A283F6
:100AE000B3838981282F30E0C901880F991F820FB5
:100AF000931F880F991F880F991F845D9E4FFC01DB
:100B000010821182128213828981282F30E0C9015C
:100B1000880F991F820F931F880F991F880F991FA5
:100B2000805D9E4F23E534E0FC013183208364E641
:100B300070E080E090E00E94A7010E94D501FFCF05
:040B4000F894FFCF57
:100B44000000000200000000670000000000010037
:100B54000000010131323334350300640000000029
:00000001FF
