:100000000C9446000C9465000C9465000C946500FB
:100010000C9465000C9465000C9465000C946500CC
:100020000C9465000C9465000C9465000C946500BC
:100030000C9465000C94D7020C9465000C94650038
:100040000C9465000C9465000C9465000C9465009C
:100050000C9465000C9465000C9465000C9465008C
:100060000C9465000C9465000C9465000C9465007C
:100070000C9465000C9465000C9465000C9465006C
:100080000C9465000C9465000C94650011241FBE4F
:10009000CFEFD0E4DEBFCDBF11E0A0E0B1E0E6EBF2
:1000A000F2E100E00BBF02C007900D92A833B10748
:1000B000D9F721E0A8E3B1E001C01D92A537B2074E
:1000C000E1F70E9415060C9459090C940000CF9397
:1000D000DF9300D01F92CDB7DEB789837B836A831D
:1000E00089818A3031F48A819B81BC018DE00E9434
:1000F000670080EC90E0FC018081882F90E08072A6
:100100009927892BB1F386EC90E02981FC012083AB
:1001100080E090E00F900F900F90DF91CF910895C5
:10012000CF93DF9300D01F92CDB7DEB789836A8368
:100130004B838B81882371F08A81282F30E081E006
:1001400090E002C0880F991F2A95E2F7982F8981C5
:10015000892B0EC08A81282F30E081E090E002C018
:10016000880F991F2A95E2F7982F90958981892306
:100170000F900F900F90DF91CF910895CF93DF9361
:1001800000D0CDB7DEB789836A838A81282F30E01B
:1001900081E090E002C0880F991F2A95E2F7982F1E
:1001A000898189230F900F90DF91CF910895CF938C
:1001B000DF93CDB7DEB788E290E02FEEFC0120831D
:1001C000000086E290E0FC01808160E00E94BE00B9
:1001D000882311F481E3B8C086E290E0FC018081BD
:1001E00061E00E94BE00882311F484E3ADC086E282
:1001F00090E0FC01808162E00E94BE00882311F43F
:1002000087E3A2C086E290E0FC01808163E00E9467
:10021000BE00882311F48AE297C088E290E02FEDB7
:10022000FC012083000086E290E0FC01808160E018
:100230000E94BE00882311F482E386C086E290E02B
:10024000FC01808161E00E94BE00882311F485E3F7
:100250007BC086E290E0FC01808162E00E94BE00EB
:10026000882311F488E370C086E290E0FC0180816D
:1002700063E00E94BE00882311F480E365C088E239
:1002800090E02FEBFC012083000086E290E0FC016F
:10029000808160E00E94BE00882311F483E354C093
:1002A00086E290E0FC01808161E00E94BE0088232C
:1002B00011F486E349C086E290E0FC01808162E0AF
:1002C0000E94BE00882311F489E33EC086E290E0DC
:1002D000FC01808163E00E94BE00882311F483E268
:1002E00033C088E290E02FE7FC012083000086E223
:1002F00090E0FC01808160E00E94BE00882311F440
:1003000081E422C086E290E0FC01808161E00E94ED
:10031000BE00882311F482E417C086E290E0FC015D
:10032000808162E00E94BE00882311F483E40CC047
:1003300086E290E0FC01808163E00E94BE00882399
:1003400011F484E401C080E0DF91CF910895CF9350
:10035000DF9300D000D0CDB7DEB769837A838B837B
:100360009C8389819A81AB81BC8180930E0190939B
:100370000F01A0931001B093110180910E01909193
:100380000F01A0911001B091110180933901909358
:100390003A01A0933B01B0933C0100000F900F90F5
:1003A0000F900F90DF91CF910895CF93DF93CDB74A
:1003B000DEB781E890E02BE0FC01208388E890E044
:1003C0002DE730E0FC01318320838FE690E022E0CE
:1003D000FC01208384E890E0FC011182108280916E
:1003E0000E0190910F01A0911001B0911101809325
:1003F000390190933A01A0933B01B0933C018FE502
:1004000090E02FE530E0F90120812068FC01208395
:100410000000DF91CF910895CF93DF93CDB7DEB782
:1004200081E890E0FC0110820000DF91CF910895F7
:100430000F931F93CF93DF931F92CDB7DEB719822F
:10044000A6C08981282F30E0C901880F991F820F2B
:10045000931F880F991F880F991F875B9E4FFC0180
:1004600020813181428153818981682F70E0CB01E5
:10047000880F991F860F971F880F991F880F991F44
:100480008B5B9E4FFC0180819181A281B3812817F3
:1004900039074A075B0708F449C08981082F10E033
:1004A0008981282F30E0C901880F991F820F931F7F
:1004B000880F991F880F991F835B9E4FFC01408115
:1004C00051818981282F30E0C901880F991F820F3F
:1004D000931F880F991F880F991F8D5B9E4FFC01FA
:1004E00080819181FA0109959C01C801880F991FAB
:1004F000800F911F880F991F880F991F8D5B9E4F4A
:10050000FC01318320838981282F30E0C901880FC5
:10051000991F820F931F880F991F880F991F875B60
:100520009E4FFC0110821182128213828981682FF2
:1005300070E08981282F30E0C901880F991F820F50
:10054000931F880F991F880F991F875B9E4FFC018F
:1005500080819181A281B38124E630E040E050E0C7
:10056000280F391F4A1F5B1FCB01880F991F860F69
:10057000971F880F991F880F991F875B9E4FFC015B
:10058000208331834283538389818F5F898389816B
:10059000282F30E084E090E02817390708F451CF85
:1005A00000000F90DF91CF911F910F9108951F923E
:1005B0000F9200905F000F92112400905B000F9249
:1005C0002F933F934F935F936F937F938F939F935B
:1005D000AF93BF93EF93FF93CF93DF93CDB7DEB786
:1005E0008091390190913A01A0913B01B0913C0179
:1005F0000197A109B1098093390190933A01A09321
:100600003B01B0933C018091390190913A01A09156
:100610003B01B0913C01892B8A2B8B2B91F40E94DA
:10062000180280910E0190910F01A0911001B091DC
:1006300011018093390190933A01A0933B01B0934B
:100640003C010000DF91CF91FF91EF91BF91AF91FD
:100650009F918F917F916F915F914F913F912F91DA
:100660000F9000925B000F9000925F000F901F9020
:1006700018950F931F93CF93DF9300D000D0CDB781
:10068000DEB769837A838B839C8380913D0190914F
:100690003E01A0913F01B09140019C01AD016981F3
:1006A0007A818B819C810E948807882309F477C016
:1006B00020E030E0A90169817A818B819C810E94D0
:1006C0008807882351F481E990E021E930E0F901BD
:1006D00020812870FC01208309C081E990E021E994
:1006E00030E0F90120812360FC01208328E539E313
:1006F00044E75FE369817A818B819C810E9488074E
:10070000882344F488E990E02FEF3FEFFC01318328
:10071000208334C020E034E244EF56E469817A81DA
:100720008B819C810E94E708181634F488E990E0D8
:10073000FC011182108222C008E910E020E030E0C4
:1007400040E053E469817A818B819C810E94EC08AE
:10075000DC01CB019C01AD0160E074E284EF9AE41E
:100760000E948D07DC01CB01BC01CD010E94FF0777
:10077000DC01CB010197F8019183808384E990E04B
:10078000FC011182108289819A81AB81BC818093A6
:100790003D0190933E01A0933F01B09340010000C2
:1007A0000F900F900F900F90DF91CF911F910F91AD
:1007B0000895CF93DF93CDB7DEB780E990E020E4D2
:1007C000FC01208381E990E02BE0FC01208360E0C4
:1007D00070E0CB010E9439030000DF91CF910895B2
:1007E000CF93DF93CDB7DEB780E990E0FC011082B4
:1007F00081E990E0FC0110820000DF91CF91089523
:10080000CF93DF9300D000D0CDB7DEB79C838B832E
:100810000E94D70089838B819C818230910559F198
:10082000833091052CF4009751F0019779F09BC02B
:100830008330910589F1049709F47EC094C0109229
:10084000410181E090E09C838B838DC0898183325C
:1008500029F081E090E09C838B837EC08981833284
:1008600009F07AC0109241011092730182E090E089
:100870009C838B8371C08981833229F482E090E06C
:100880009C838B836BC08981882309F067C083E0D8
:1008900090E09C838B8362C08981833249F482E03B
:1008A00090E09C838B83109241011092730158C099
:1008B0008981882349F480914101853028F483E0BF
:1008C00090E09C838B8337C08981882341F180919C
:1008D0004101853020F589818A8384E090E09C8302
:1008E0008B8380914101882F90E08C5E9E4FFC01AC
:1008F00090818A81981769F49091130181E099237E
:1009000009F080E080931301809173018F5F8093E1
:100910007301809141018F5F809341010CC08981F7
:100920008823F1F4809141018530D0F081E090E09E
:100930009C838B8315C014C08981882329F084E0AF
:1009400090E09C838B830EC08981882359F483E0D7
:1009500090E09C838B8306C0000005C0000003C0AC
:10096000000001C000008B819C818130910519F04D
:10097000029751F00FC080917301853051F41092AD
:1009800012011092730105C010927301109241017F
:1009900001C000008B819C810F900F900F900F90F1
:1009A000DF91CF910895CF93DF9300D0CDB7DEB71D
:1009B0009A83898389819A818130910559F08230A7
:1009C0009105D9F0892B09F028C081E090E09A8345
:1009D000898323C083E290E0FC018081882344F076
:1009E00081E08093120182E090E09A83898315C0B0
:1009F00081E090E09A83898310C083E290E0FC015B
:100A0000808188232CF082E090E09A83898304C05F
:100A100081E090E09A838983000089819A8101971F
:100A200009F001C0000089819A810F900F90DF9139
:100A3000CF910895CF93DF9300D0CDB7DEB79A83DF
:100A4000898389819A818130910589F0823091056D
:100A50001CF4892B39F052C08230910511F10397B3
:100A600091F14CC081E090E09A83898347C080E295
:100A700090E0FC01808188232CF481E090E09A834F
:100A8000898337C080E290E0FC01808188238CF16B
:100A900082E090E09A83898310924201109274015F
:100AA00028C080917401823128F482E090E09A831A
:100AB000898321C0809174018231E8F083E090E065
:100AC0009A83898318C080E290E0FC0180818823AA
:100AD0002CF083E090E09A8389830FC080E290E05D
:100AE000FC01808188234CF481E090E09A83898323
:100AF00004C0000003C0000001C0000089819A8189
:100B00008130910599F0823091051CF4892B41F0D8
:100B100057C082309105A1F0039709F44BC050C033
:100B200060E070E0CB010E9439034AC0109242019C
:100B30001092740160E070E0CB010E94390340C064
:100B40008091740186958093420180917401817037
:100B5000882301F580914201882F90E0815D9E4FAE
:100B6000FC018081882F90E00197880F991F815E9A
:100B70009E4FFC0180819181CC01A0E0B0E0BC01DE
:100B8000CD010E943508DC01CB01BC01CD010E94E2
:100B900039030AC0809174018170882329F060E0D4
:100BA00070E0CB010E943903809174018F5F8093C4
:100BB000740106C060E070E0CB010E9439030000C0
:100BC00089819A810F900F90DF91CF910895CF93F3
:100BD000DF9300D0CDB7DEB79A83898389819A816C
:100BE000009719F0019731F00AC081E090E09A83F4
:100BF000898305C081E090E09A8389830000898120
:100C00009A81009751F0019709F008C085E290E0C1
:100C100020911201FC01208301C0000089819A818A
:100C20000F900F90DF91CF910895CF93DF931F9294
:100C3000CDB7DEB781E290E0FC01108282E290E065
:100C40002FEFFC01208384E290E02FE7FC0120835A
:100C500085E290E020E8FC01208387E290E020EF2D
:100C6000FC01208388E290E02FE0FC0120830E94B9
:100C7000D90319828981282F30E0C901880F991F73
:100C8000820F931F880F991F880F991F8D5B9E4FAE
:100C9000FC01118210828981282F30E0C901880F60
:100CA000991F820F931F880F991F880F991F9C010E
:100CB0002B5B3E4F84E690E0A0E0B0E0F90180833A
:100CC0009183A283B3838981282F30E0C901880FE3
:100CD000991F820F931F880F991F880F991F875B99
:100CE0009E4FFC0110821182128213828981282F6B
:100CF00030E0C901880F991F820F931F880F991F39
:100D0000880F991F835B9E4F20E034E0FC01318304
:100D1000208389818F5F89838981282F30E0C901F1
:100D2000880F991F820F931F880F991F880F991F93
:100D30008D5B9E4FFC01118210828981282F30E04B
:100D4000C901880F991F820F931F880F991F880F61
:100D5000991F9C012B5B3E4F84E690E0A0E0B0E041
:100D6000F90180839183A283B3838981282F30E0A6
:100D7000C901880F991F820F931F880F991F880F31
:100D8000991F875B9E4FFC01108211821282138291
:100D90008981282F30E0C901880F991F820F931F86
:100DA000880F991F880F991F835B9E4F23ED34E0B6
:100DB000FC013183208389818F5F89838981282F7A
:100DC00030E0C901880F991F820F931F880F991F68
:100DD000880F991F8D5B9E4FFC01118210828981C3
:100DE000282F30E0C901880F991F820F931F880FA9
:100DF000991F880F991F9C012B5B3E4F88EC90E058
:100E0000A0E0B0E0F90180839183A283B38389815C
:100E1000282F30E0C901880F991F820F931F880F78
:100E2000991F880F991F875B9E4FFC0110821182CA
:100E3000128213828981282F30E0C901880F991FFF
:100E4000820F931F880F991F880F991F835B9E4FF6
:100E50002AE135E0FC013183208389818F5F89831A
:100E60008981282F30E0C901880F991F820F931FB5
:100E7000880F991F880F991F8D5B9E4FFC0111826F
:100E800010828981282F30E0C901880F991F820FB5
:100E9000931F880F991F880F991F9C012B5B3E4F52
:100EA00084E690E0A0E0B0E0F90180839183A28322
:100EB000B3838981282F30E0C901880F991F820FE1
:100EC000931F880F991F880F991F875B9E4FFC0106
:100ED00010821182128213828981282F30E0C90189
:100EE000880F991F820F931F880F991F880F991FD2
:100EF000835B9E4F27EE35E0FC013183208364E65F
:100F000070E080E090E00E94A7010E94D501FFCF31
:100F10000E94720808F481E008950E94A1070C94D1
:100F2000AD080E94A60858F00E949F0840F029F4DE
:100F30005F3F29F00C94960851110C94E1080C9431
:100F40009C080E94BE0868F39923B1F3552391F3DE
:100F5000951B550BBB27AA2762177307840738F028
:100F60009F5F5F4F220F331F441FAA1FA9F335D085
:100F70000E2E3AF0E0E832D091505040E695001C39
:100F8000CAF72BD0FE2F29D0660F771F881FBB1FF3
:100F9000261737074807AB07B0E809F0BB0B802DD1
:100FA000BF01FF2793585F4F3AF09E3F510578F0FD
:100FB0000C9496080C94E1085F3FE4F3983ED4F358
:100FC000869577956795B795F7959F5FC9F7880FD1
:100FD000911D9695879597F90895E1E0660F771F23
:100FE000881FBB1F621773078407BA0720F0621BB4
:100FF000730B840BBA0BEE1F88F7E09508950E94DF
:1010000006086894B1110C94E10808950E94C6087E
:1010100088F09F5798F0B92F9927B751B0F0E1F0B9
:10102000660F771F881F991F1AF0BA95C9F714C069
:10103000B13091F00E94E008B1E008950C94E0080E
:10104000672F782F8827B85F39F0B93FCCF38695A2
:1010500077956795B395D9F73EF4909580957095FF
:1010600061957F4F8F4F9F4F0895E89409C097FB7C
:101070003EF490958095709561957F4F8F4F9F4F6F
:101080009923A9F0F92F96E9BB279395F6958795B3
:1010900077956795B795F111F8CFFAF4BB0F11F476
:1010A00060FF1BC06F5F7F4F8F4F9F4F16C088231D
:1010B00011F096E911C0772321F09EE8872F762F53
:1010C00005C0662371F096E8862F70E060E02AF094
:1010D0009A95660F771F881FDAF7880F9695879580
:1010E00097F90895990F0008550FAA0BE0E8FEEF55
:1010F00016161706E807F907C0F012161306E407DC
:10110000F50798F0621B730B840B950B39F40A26D4
:1011100061F0232B242B252B21F408950A2609F4B2
:10112000A140A6958FEF811D811D089597F99F67B6
:1011300080E870E060E008959FEF80EC089500245F
:101140000A941616170618060906089500240A942C
:1011500012161306140605060895092E0394000CB2
:1011600011F4882352F0BB0F40F4BF2B11F460FF41
:1011700004C06F5F7F4F8F4F9F4F089557FD90586A
:10118000440F551F59F05F3F71F04795880F97FB4B
:10119000991F61F09F3F79F0879508951216130605
:1011A0001406551FF2CF4695F1DF08C01616170634
:1011B0001806991FF1CF8695710561050894089569
:1011C000E894BB2766277727CB0197F908950E94FB
:1011D000720808F48FEF08950E94FF080C94AD0880
:1011E0000E949F0838F00E94A60820F0952311F075
:1011F0000C9496080C949C0811240C94E1080E940D
:10120000BE0870F3959FC1F3950F50E0551F629F84
:10121000F001729FBB27F00DB11D639FAA27F00D4F
:10122000B11DAA1F649F6627B00DA11D661F829F76
:101230002227B00DA11D621F739FB00DA11D621F5B
:10124000839FA00D611D221F749F3327A00D611D78
:10125000231F849F600D211D822F762F6A2F11245A
:101260009F5750409AF0F1F088234AF0EE0FFF1F8D
:10127000BB1F661F771F881F91505040A9F79E3FE4
:10128000510580F00C9496080C94E1085F3FE4F35C
:10129000983ED4F3869577956795B795F795E7953A
:1012A0009F5FC1F7FE2B880F911D9695879597F943
:0612B0000895F894FFCF41
:1012B60000000002000000006700000000000100BE
:1012C60000000101313233343504006400000005AA
:1012D60001250149015D018801B801ED010B0208F4
:0812E6000808080507080708C5
:00000001FF
