:100000000C944D000C946C000C946C000C946C00DF
:100010000C946C000C946C000C946C000C946C00B0
:100020000C946C000C946C000C946C000C946C00A0
:100030000C946C000C94DE020C946C000C946C001C
:100040000C946C000C946C000C946C000C946C0080
:100050000C946C000C946C000C946C000C946C0070
:100060000C946C000C946C000C946C000C946C0060
:100070000C946C000C946C000C946C000C946C0050
:100080000C946C000C946C000C946C008E0693061F
:10009000AA06F70615077407950711241FBECFEFB0
:1000A000D0E4DEBFCDBF11E0A0E0B1E0E0E4F7E1D5
:1000B00000E00BBF02C007900D92AC33B107D9F737
:1000C00021E0ACE3B1E001C01D92A938B207E1F72D
:1000D0000E94FF070C949E0B0C940000CF93DF93BB
:1000E00000D01F92CDB7DEB789837B836A83898175
:1000F0008A3031F48A819B81BC018DE00E946E00C0
:1001000080EC90E0FC018081882F90E0807299273C
:10011000892BB1F386EC90E02981FC01208380E0FB
:1001200090E00F900F900F90DF91CF910895CF93B3
:10013000DF9300D01F92CDB7DEB789836A834B83EC
:100140008B81882371F08A81282F30E081E090E054
:1001500002C0880F991F2A95E2F7982F8981892B71
:100160000EC08A81282F30E081E090E002C0880F25
:10017000991F2A95E2F7982F9095898189230F90EE
:100180000F900F90DF91CF910895CF93DF9300D020
:10019000CDB7DEB789836A838A81282F30E081E07A
:1001A00090E002C0880F991F2A95E2F7982F898165
:1001B00089230F900F90DF91CF910895CF93DF9314
:1001C000CDB7DEB788E290E02FE7FC012083000086
:1001D00086E290E0FC01808160E00E94C5008823F7
:1001E00011F481E4B8C086E290E0FC01808161E016
:1001F0000E94C500882311F482E4ADC086E290E03D
:10020000FC01808162E00E94C500882311F483E430
:10021000A2C086E290E0FC01808163E00E94C500FC
:10022000882311F484E497C088E290E02FEBFC016E
:100230002083000086E290E0FC01808160E00E9463
:10024000C500882311F483E386C086E290E0FC01B8
:10025000808161E00E94C500882311F486E37BC0A1
:1002600086E290E0FC01808162E00E94C500882364
:1002700011F489E370C086E290E0FC01808163E0C4
:100280000E94C500882311F483E265C088E290E0F3
:100290002FEDFC012083000086E290E0FC018081CC
:1002A00060E00E94C500882311F482E354C086E216
:1002B00090E0FC01808161E00E94C500882311F478
:1002C00085E349C086E290E0FC01808162E00E9403
:1002D000C500882311F488E33EC086E290E0FC016B
:1002E000808163E00E94C500882311F480E333C05D
:1002F00088E290E02FEEFC012083000086E290E08F
:10030000FC01808160E00E94C500882311F481E334
:1003100022C086E290E0FC01808161E00E94C5007D
:10032000882311F484E317C086E290E0FC01808109
:1003300062E00E94C500882311F487E30CC086E2C6
:1003400090E0FC01808163E00E94C500882311F4E5
:100350008AE201C080E0DF91CF910895CF93DF93CF
:1003600000D000D0CDB7DEB769837A838B839C83BE
:1003700089819A81AB81BC8180930E0190930F019A
:10038000A0931001B093110180910E0190910F0183
:10039000A0911001B091110180933D0190933E0115
:1003A000A0933F01B093400100000F900F900F9079
:1003B0000F90DF91CF910895CF93DF93CDB7DEB744
:1003C00081E890E02BE0FC01208388E890E02DE7B5
:1003D00030E0FC01318320838FE690E022E0FC01D5
:1003E000208384E890E0FC011182108280910E014C
:1003F00090910F01A0911001B091110180933D01E6
:1004000090933E01A0933F01B09340018FE590E0AF
:100410002FE530E0F90120812068FC0120830000F5
:10042000DF91CF910895CF93DF93CDB7DEB781E809
:1004300090E0FC0110820000DF91CF9108950F93AE
:100440001F93CF93DF931F92CDB7DEB71982A6C05B
:100450008981282F30E0C901880F991F820F931FCF
:10046000880F991F880F991F825B9E4FFC01208186
:100470003181428153818981682F70E0CB01880FDF
:10048000991F860F971F880F991F880F991F865BEA
:100490009E4FFC0180819181A281B3812817390789
:1004A0004A075B0708F449C08981082F10E0898159
:1004B000282F30E0C901880F991F820F931F880FE2
:1004C000991F880F991F8E5A9E4FFC0140815181C0
:1004D0008981282F30E0C901880F991F820F931F4F
:1004E000880F991F880F991F885B9E4FFC018081A0
:1004F0009181FA0109959C01C801880F991F800F0D
:10050000911F880F991F880F991F885B9E4FFC01D0
:10051000318320838981282F30E0C901880F991FFA
:10052000820F931F880F991F880F991F825B9E4F20
:10053000FC0110821182128213828981682F70E07F
:100540008981282F30E0C901880F991F820F931FDE
:10055000880F991F880F991F825B9E4FFC01808135
:100560009181A281B38124E630E040E050E0280F81
:10057000391F4A1F5B1FCB01880F991F860F971FDA
:10058000880F991F880F991F825B9E4FFC01208363
:1005900031834283538389818F5F89838981282FA7
:1005A00030E085E090E02817390708F451CF0000CB
:1005B0000F90DF91CF911F910F9108951F920F928D
:1005C00000905F000F92112400905B000F922F9318
:1005D0003F934F935F936F937F938F939F93AF93CB
:1005E000BF93EF93FF93CF93DF93CDB7DEB78091A7
:1005F0003D0190913E01A0913F01B09140010197D2
:10060000A109B10980933D0190933E01A0933F0160
:10061000B093400180913D0190913E01A0913F0136
:10062000B0914001892B8A2B8B2B91F40E941F02E1
:1006300080910E0190910F01A0911001B0911101D4
:1006400080933D0190933E01A0933F01B093400100
:100650000000DF91CF91FF91EF91BF91AF919F91FA
:100660008F917F916F915F914F913F912F910F905B
:1006700000925B000F9000925F000F901F90189502
:100680000F931F93CF93DF9300D000D0CDB7DEB789
:1006900069837A838B839C8380914201909143018B
:1006A000A0914401B09145019C01AD0169817A811D
:1006B0008B819C810E94CD09882309F477C020E0BA
:1006C00030E0A90169817A818B819C810E94CD09EA
:1006D000882351F481E990E021E930E0F90120819B
:1006E0002870FC01208309C081E990E021E930E015
:1006F000F90120812360FC01208328E539E344E7E8
:100700005FE369817A818B819C810E94CD09882376
:1007100044F488E990E02FEF3FEFFC013183208320
:1007200034C020E034E244EF56E469817A818B8161
:100730009C810E942C0B181634F488E990E0FC018F
:100740001182108222C008E910E020E030E040E091
:1007500053E469817A818B819C810E94310BDC0199
:10076000CB019C01AD0160E074E284EF9AE40E9449
:10077000D209DC01CB01BC01CD010E94440ADC019D
:10078000CB010197F8019183808384E990E0FC011B
:100790001182108289819A81AB81BC818093420150
:1007A00090934301A0934401B093450100000F9042
:1007B0000F900F900F90DF91CF911F910F9108959F
:1007C000CF93DF93CDB7DEB780E990E020E4FC0162
:1007D000208381E990E02BE0FC01208360E070E061
:1007E000CB010E9440030000DF91CF910895CF9389
:1007F000DF93CDB7DEB780E990E0FC01108281E99C
:1008000090E0FC0110820000DF91CF910895CF931A
:10081000DF9300D000D0CDB7DEB79C838B830E94DE
:10082000DE0089838B819C818230910581F1833048
:1008300091052CF4009779F00197A1F00FC1843055
:10084000910509F4B2C0843091050CF442C00597BB
:1008500009F489C003C11092460181E090E09C83B5
:100860008B83FCC08981833229F081E090E09C83F6
:100870008B83EBC08981833209F0E7C01092460177
:100880001092850182E090E09C838B83DEC0898199
:10089000833229F482E090E09C838B83D8C08981E5
:1008A000882349F480914101882329F483E090E072
:1008B0009C838B83CCC08981882309F0C8C0809138
:1008C0004101813009F0C3C084E090E09C838B83B8
:1008D000BEC08981833249F482E090E09C838B839F
:1008E0001092460110928501B4C08981882349F491
:1008F00080914601853028F483E090E09C838B83CF
:1009000031C08981882301F1809146018530E0F46E
:1009100089818A8385E090E09C838B838091460166
:10092000882F90E0885E9E4FFC0190818A81981705
:1009300029F4809185018F5F809385018091460124
:100940008F5F809346010EC08981882309F081C0A2
:1009500080914601853008F47CC081E090E09C8362
:100960008B8377C076C08981882329F085E090E069
:100970009C838B8370C08981882349F480914101D5
:10098000882329F483E090E09C838B8364C0898171
:10099000882309F060C080914101813009F05BC07B
:1009A00084E090E09C838B8356C08981833249F434
:1009B00082E090E09C838B83109246011092850127
:1009C0004CC08981882349F480914601843028F401
:1009D00084E090E09C838B8337C08981882341F138
:1009E00080914601843020F589818A8385E090E0FA
:1009F0009C838B8380914601882F90E08E5E9E4F72
:100A0000FC0190818A81981769F49091170181E027
:100A1000992309F080E080931701809185018F5F11
:100A200080938501809146018F5F809346010CC0C1
:100A30008981882391F480914601843070F081E0AF
:100A400090E09C838B8309C008C0000007C00000B1
:100A500005C0000003C0000001C000008B819C8124
:100A60008130910519F00297B1F01BC0809185018A
:100A7000853021F480914101882341F080918501E6
:100A8000843071F480914101813051F4109216014B
:100A90001092850105C0109285011092460101C097
:100AA00000008B819C810F900F900F900F90DF9131
:100AB000CF910895CF93DF9300D0CDB7DEB79A835F
:100AC000898389819A818130910559F0823091051D
:100AD000D9F0892B09F028C081E090E09A838983BE
:100AE00023C083E290E0FC018081882344F081E010
:100AF0008093160182E090E09A83898315C081E09B
:100B000090E09A83898310C083E290E0FC018081A9
:100B100088232CF082E090E09A83898304C081E0EE
:100B200090E09A838983000089819A81019709F076
:100B300001C0000089819A810F900F90DF91CF91C1
:100B40000895CF93DF9300D0CDB7DEB79A83898322
:100B500089819A818130910589F0823091051CF458
:100B6000892B39F052C08230910511F1039791F130
:100B70004CC081E090E09A83898347C080E290E096
:100B8000FC01808188232CF481E090E09A838983A2
:100B900037C080E290E0FC01808188238CF182E004
:100BA00090E09A838983109247011092870128C0B0
:100BB00080918701823128F482E090E09A838983D2
:100BC00021C0809187018231E8F083E090E09A8330
:100BD000898318C080E290E0FC01808188232CF09A
:100BE00083E090E09A8389830FC080E290E0FC016B
:100BF000808188234CF481E090E09A83898304C04B
:100C0000000003C0000001C0000089819A8181308A
:100C1000910599F0823091051CF4892B41F057C061
:100C200082309105A1F0039709F44BC050C060E0F9
:100C300070E0CB010E9440034AC01092470110921D
:100C4000870160E070E0CB010E94400340C08091CA
:100C50008701869580934701809187018170882361
:100C600001F580914701882F90E08D5C9E4FFC013B
:100C70008081882F90E00197880F991F8D5D9E4F8E
:100C8000FC0180819181CC01A0E0B0E0BC01CD01EC
:100C90000E947A0ADC01CB01BC01CD010E94400315
:100CA0000AC0809187018170882329F060E070E09C
:100CB000CB010E944003809187018F5F8093870161
:100CC00006C060E070E0CB010E9440030000898113
:100CD0009A810F900F90DF91CF910895CF93DF937A
:100CE00000D01F92CDB7DEB79B838A830E94DE00BF
:100CF00089838A819B81092E000CAA0BBB0B40E0E3
:100D000050E026E030E0841B950B2817390708F4E3
:100D100011C18A5B9F4FFC010C94C40981E090E0F3
:100D20009B838A8310C189818A3279F483E290E0BF
:100D3000FC01808188234CF082E090E09B838A83D1
:100D40001092860110928401FEC081E090E09B83A6
:100D50008A83F9C089818A3259F483E290E0FC01E8
:100D6000808188232CF082E090E09B838A833EC0C0
:100D700089818A3201F183E290E0FC01808188233D
:100D8000D4F089818823B9F080918601843098F469
:100D900083E090E09B838A8380918601882F90E096
:100DA0008E5E9E4F2981FC012083809186018F5F9A
:100DB000809386011BC08981882309F0BDC083E22E
:100DC00090E0FC01808188230CF0B6C08091860100
:100DD000843008F4B1C084E090E09B838A83109251
:100DE00084011092860110928801A6C0A5C083E2FA
:100DF00090E0FC018081882344F089818A3229F0C7
:100E000083E090E09B838A8399C089818A3209F0CC
:100E100095C083E290E0FC01808188230CF48EC0B1
:100E200082E090E09B838A8389C080918401823331
:100E300048F580918601843028F58981882311F155
:100E400085E090E09B838A8380918601882F90E0E3
:100E50008E5E9E4FFC0190818981981769F4809184
:100E600088018F5F809388019091170181E0992319
:100E700009F080E080931701809186018F5F809355
:100E8000860131C080918401823360F480918601B3
:100E9000843040F48981882329F484E090E09B83A6
:100EA0008A8321C080918401823360F4809188011B
:100EB000843041F481E08093410186E090E09B839F
:100EC0008A8311C080918401833320F4809186014C
:100ED0008430B0F180918801843091F181E090E01C
:100EE0009B838A832DC02CC080918401823328F09B
:100EF00081E090E09B838A8325C0809184018233C6
:100F000040F48981882329F085E090E09B838A83DF
:100F100019C0809184018233A8F48981882391F4D7
:100F200084E090E09B838A830DC086E090E09B8301
:100F30008A8309C0000007C0000005C0000003C08C
:100F4000000001C000008A819B818430910519F066
:100F5000059739F00CC0809184018F5F80938401E4
:100F600006C0809184018F5F8093840100008A8194
:100F70009B810F900F900F90DF91CF910895CF93A9
:100F8000DF9300D0CDB7DEB79A83898389819A81B8
:100F9000009719F0019731F00AC081E090E09A8340
:100FA000898305C081E090E09A838983000089816C
:100FB0009A810097E1F0019709F01AC085E290E06C
:100FC00020914101222F30E0220F331F322F209138
:100FD0001601432F422B20911701222F30E0220FC0
:100FE000331F220F331F242BFC01208301C000007C
:100FF00089819A810F900F90DF91CF910895CF93BF
:10100000DF931F92CDB7DEB781E290E0FC01108242
:1010100082E290E02FEFFC01208384E290E02FE752
:10102000FC01208385E290E020E8FC01208387E238
:1010300090E020EFFC01208388E290E02FE0FC01AB
:1010400020830E94E00319828981282F30E0C901A2
:10105000880F991F820F931F880F991F880F991F60
:10106000885B9E4FFC01118210828981282F30E01D
:10107000C901880F991F820F931F880F991F880F2E
:10108000991F9C01265B3E4F84E690E0A0E0B0E013
:10109000F90180839183A283B3838981282F30E073
:1010A000C901880F991F820F931F880F991F880FFE
:1010B000991F825B9E4FFC01108211821282138263
:1010C0008981282F30E0C901880F991F820F931F53
:1010D000880F991F880F991F8E5A9E4F27E034E082
:1010E000FC013183208389818F5F89838981282F47
:1010F00030E0C901880F991F820F931F880F991F35
:10110000880F991F885B9E4FFC0111821082898194
:10111000282F30E0C901880F991F820F931F880F75
:10112000991F880F991F9C01265B3E4F84E690E033
:10113000A0E0B0E0F90180839183A283B383898129
:10114000282F30E0C901880F991F820F931F880F45
:10115000991F880F991F825B9E4FFC01108211829C
:10116000128213828981282F30E0C901880F991FCC
:10117000820F931F880F991F880F991F8E5A9E4FB9
:101180002AE535E0FC013183208389818F5F8983E3
:101190008981282F30E0C901880F991F820F931F82
:1011A000880F991F880F991F885B9E4FFC01118241
:1011B00010828981282F30E0C901880F991F820F82
:1011C000931F880F991F880F991F9C01265B3E4F24
:1011D00088EC90E0A0E0B0E0F90180839183A283E5
:1011E000B3838981282F30E0C901880F991F820FAE
:1011F000931F880F991F880F991F825B9E4FFC01D8
:1012000010821182128213828981282F30E0C90155
:10121000880F991F820F931F880F991F880F991F9E
:101220008E5A9E4F21EA35E0FC013183208389816B
:101230008F5F89838981282F30E0C901880F991F2A
:10124000820F931F880F991F880F991F885B9E4FED
:10125000FC01118210828981282F30E0C901880F9A
:10126000991F820F931F880F991F880F991F9C0148
:10127000265B3E4F84E690E0A0E0B0E0F901808379
:101280009183A283B3838981282F30E0C901880F1D
:10129000991F820F931F880F991F880F991F825BD8
:1012A0009E4FFC0110821182128213828981282FA5
:1012B00030E0C901880F991F820F931F880F991F73
:1012C000880F991F8E5A9E4F2EE636E0FC0131831F
:1012D000208389818F5F89838981282F30E0C9012C
:1012E000880F991F820F931F880F991F880F991FCE
:1012F000885B9E4FFC01118210828981282F30E08B
:10130000C901880F991F820F931F880F991F880F9B
:10131000991F9C01265B3E4F84E690E0A0E0B0E080
:10132000F90180839183A283B3838981282F30E0E0
:10133000C901880F991F820F931F880F991F880F6B
:10134000991F825B9E4FFC011082118212821382D0
:101350008981282F30E0C901880F991F820F931FC0
:10136000880F991F880F991F8E5A9E4F2FEB37E0D9
:10137000FC013183208364E670E080E090E00E940D
:10138000AE010E94DC01FFCFEE0FFF1F0024001C06
:101390000BBE0790F691E02D09940E94B70A08F45D
:1013A00081E008950E94E6090C94F20A0E94EB0A7B
:1013B00058F00E94E40A40F029F45F3F29F00C94B1
:1013C000DB0A51110C94260B0C94E10A0E94030BCA
:1013D00068F39923B1F3552391F3951B550BBB2764
:1013E000AA2762177307840738F09F5F5F4F220FA9
:1013F000331F441FAA1FA9F335D00E2E3AF0E0E8A0
:1014000032D091505040E695001CCAF72BD0FE2FE9
:1014100029D0660F771F881FBB1F2617370748077D
:10142000AB07B0E809F0BB0B802DBF01FF27935835
:101430005F4F3AF09E3F510578F00C94DB0A0C9414
:10144000260B5F3FE4F3983ED4F386957795679536
:10145000B795F7959F5FC9F7880F911D969587956A
:1014600097F90895E1E0660F771F881FBB1F621789
:1014700073078407BA0720F0621B730B840BBA0B47
:10148000EE1F88F7E09508950E944B0A6894B11109
:101490000C94260B08950E940B0B88F09F5798F030
:1014A000B92F9927B751B0F0E1F0660F771F881F69
:1014B000991F1AF0BA95C9F714C0B13091F00E9483
:1014C000250BB1E008950C94250B672F782F882702
:1014D000B85F39F0B93FCCF3869577956795B395AA
:1014E000D9F73EF490958095709561957F4F8F4F19
:1014F0009F4F0895E89409C097FB3EF4909580951E
:10150000709561957F4F8F4F9F4F9923A9F0F92FC9
:1015100096E9BB279395F695879577956795B79547
:10152000F111F8CFFAF4BB0F11F460FF1BC06F5F2D
:101530007F4F8F4F9F4F16C0882311F096E911C03F
:10154000772321F09EE8872F762F05C0662371F060
:1015500096E8862F70E060E02AF09A95660F771F74
:10156000881FDAF7880F9695879597F90895990F50
:101570000008550FAA0BE0E8FEEF16161706E8075D
:10158000F907C0F012161306E407F50798F0621B7E
:10159000730B840B950B39F40A2661F0232B242B53
:1015A000252B21F408950A2609F4A140A6958FEF72
:1015B000811D811D089597F99F6780E870E060E0C4
:1015C00008959FEF80EC089500240A9416161706DC
:1015D00018060906089500240A9412161306140624
:1015E00005060895092E0394000C11F4882352F087
:1015F000BB0F40F4BF2B11F460FF04C06F5F7F4F3F
:101600008F4F9F4F089557FD9058440F551F59F025
:101610005F3F71F04795880F97FB991F61F09F3FDF
:1016200079F087950895121613061406551FF2CF08
:101630004695F1DF08C0161617061806991FF1CF58
:1016400086957105610508940895E894BB2766277F
:101650007727CB0197F908950E94B70A08F48FEF16
:1016600008950E94440B0C94F20A0E94E40A38F098
:101670000E94EB0A20F0952311F00C94DB0A0C94E5
:10168000E10A11240C94260B0E94030B70F3959F22
:10169000C1F3950F50E0551F629FF001729FBB2769
:1016A000F00DB11D639FAA27F00DB11DAA1F649F05
:1016B0006627B00DA11D661F829F2227B00DA11DB8
:1016C000621F739FB00DA11D621F839FA00D611D3E
:1016D000221F749F3327A00D611D231F849F600D5F
:1016E000211D822F762F6A2F11249F5750409AF088
:1016F000F1F088234AF0EE0FFF1FBB1F661F771F14
:10170000881F91505040A9F79E3F510580F00C94DE
:10171000DB0A0C94260B5F3FE4F3983ED4F38695E6
:1017200077956795B795F795E7959F5FC1F7FE2B7E
:10173000880F911D9695879597F90895F894FFCF96
:1017400000000002000000006E0000000000010028
:101750000000676767670101313233343505006483
:101760000000000501250149015D018801B801ED76
:0C177000010B020808080805070807081C
:00000001FF
