:100000000C9446000C9465000C9465000C946500FB
:100010000C9465000C9465000C9465000C946500CC
:100020000C9465000C9465000C9465000C946500BC
:100030000C9465000C94D7020C9465000C94650038
:100040000C9465000C9465000C9465000C9465009C
:100050000C9465000C9465000C9465000C9465008C
:100060000C9465000C9465000C9465000C9465007C
:100070000C9465000C9465000C9465000C9465006C
:100080000C9465000C9465000C94650011241FBE4F
:10009000CFEFD0E4DEBFCDBF11E0A0E0B1E0E8EFEC
:1000A000F8E000E00BBF02C007900D92A831B10745
:1000B000D9F721E0A8E1B1E001C01D92A633B20753
:1000C000E1F70E94B7030C947A040C940000CF93DC
:1000D000DF9300D01F92CDB7DEB789837B836A831D
:1000E00089818A3031F48A819B81BC018DE00E9434
:1000F000670080EC90E0FC018081882F90E08072A6
:100100009927892BB1F386EC90E02981FC012083AB
:1001100080E090E00F900F900F90DF91CF910895C5
:10012000CF93DF9300D01F92CDB7DEB789836A8368
:100130004B838B81882371F08A81282F30E081E006
:1001400090E002C0880F991F2A95E2F7982F8981C5
:10015000892B0EC08A81282F30E081E090E002C018
:10016000880F991F2A95E2F7982F90958981892306
:100170000F900F900F90DF91CF910895CF93DF9361
:1001800000D0CDB7DEB789836A838A81282F30E01B
:1001900081E090E002C0880F991F2A95E2F7982F1E
:1001A000898189230F900F90DF91CF910895CF938C
:1001B000DF93CDB7DEB788E290E02FEEFC0120831D
:1001C000000086E290E0FC01808160E00E94BE00B9
:1001D000882311F481E3B8C086E290E0FC018081BD
:1001E00061E00E94BE00882311F484E3ADC086E282
:1001F00090E0FC01808162E00E94BE00882311F43F
:1002000087E3A2C086E290E0FC01808163E00E9467
:10021000BE00882311F48AE297C088E290E02FEDB7
:10022000FC012083000086E290E0FC01808160E018
:100230000E94BE00882311F482E386C086E290E02B
:10024000FC01808161E00E94BE00882311F485E3F7
:100250007BC086E290E0FC01808162E00E94BE00EB
:10026000882311F488E370C086E290E0FC0180816D
:1002700063E00E94BE00882311F480E365C088E239
:1002800090E02FEBFC012083000086E290E0FC016F
:10029000808160E00E94BE00882311F483E354C093
:1002A00086E290E0FC01808161E00E94BE0088232C
:1002B00011F486E349C086E290E0FC01808162E0AF
:1002C0000E94BE00882311F489E33EC086E290E0DC
:1002D000FC01808163E00E94BE00882311F483E268
:1002E00033C088E290E02FE7FC012083000086E223
:1002F00090E0FC01808160E00E94BE00882311F440
:1003000081E422C086E290E0FC01808161E00E94ED
:10031000BE00882311F482E417C086E290E0FC015D
:10032000808162E00E94BE00882311F483E40CC047
:1003300086E290E0FC01808163E00E94BE00882399
:1003400011F484E401C080E0DF91CF910895CF9350
:10035000DF9300D000D0CDB7DEB769837A838B837B
:100360009C8389819A81AB81BC8180930E0190939B
:100370000F01A0931001B093110180910E01909193
:100380000F01A0911001B091110180931901909378
:100390001A01A0931B01B0931C0100000F900F9055
:1003A0000F900F90DF91CF910895CF93DF93CDB74A
:1003B000DEB781E890E02BE0FC01208388E890E044
:1003C0002DE730E0FC01318320838FE690E022E0CE
:1003D000FC01208384E890E0FC011182108280916E
:1003E0000E0190910F01A0911001B0911101809325
:1003F000190190931A01A0931B01B0931C018FE582
:1004000090E02FE530E0F90120812068FC01208395
:100410000000DF91CF910895CF93DF93CDB7DEB782
:1004200081E890E0FC0110820000DF91CF910895F7
:100430000F931F93CF93DF931F92CDB7DEB719822F
:10044000A6C08981282F30E0C901880F991F820F2B
:10045000931F880F991F880F991F8D5D9E4FFC0178
:1004600020813181428153818981682F70E0CB01E5
:10047000880F991F860F971F880F991F880F991F44
:10048000815E9E4FFC0180819181A281B3812817FA
:1004900039074A075B0708F449C08981082F10E033
:1004A0008981282F30E0C901880F991F820F931F7F
:1004B000880F991F880F991F895D9E4FFC0140810D
:1004C00051818981282F30E0C901880F991F820F3F
:1004D000931F880F991F880F991F835E9E4FFC0101
:1004E00080819181FA0109959C01C801880F991FAB
:1004F000800F911F880F991F880F991F835E9E4F51
:10050000FC01318320838981282F30E0C901880FC5
:10051000991F820F931F880F991F880F991F8D5D58
:100520009E4FFC0110821182128213828981682FF2
:1005300070E08981282F30E0C901880F991F820F50
:10054000931F880F991F880F991F8D5D9E4FFC0187
:1005500080819181A281B38124E630E040E050E0C7
:10056000280F391F4A1F5B1FCB01880F991F860F69
:10057000971F880F991F880F991F8D5D9E4FFC0153
:10058000208331834283538389818F5F898389816B
:10059000282F30E082E090E02817390708F451CF87
:1005A00000000F90DF91CF911F910F9108951F923E
:1005B0000F9200905F000F92112400905B000F9249
:1005C0002F933F934F935F936F937F938F939F935B
:1005D000AF93BF93EF93FF93CF93DF93CDB7DEB786
:1005E0008091190190911A01A0911B01B0911C01F9
:1005F0000197A109B1098093190190931A01A09361
:100600001B01B0931C018091190190911A01A091D6
:100610001B01B0911C01892B8A2B8B2B91F40E941A
:10062000180280910E0190910F01A0911001B091DC
:1006300011018093190190931A01A0931B01B093AB
:100640001C010000DF91CF91FF91EF91BF91AF911D
:100650009F918F917F916F915F914F913F912F91DA
:100660000F9000925B000F9000925F000F901F9020
:100670001895CF93DF9300D01F92CDB7DEB79B8341
:100680008A830E94D70089838A819B81813091056A
:1006900059F082309105A9F0892B09F01FC081E043
:1006A00090E09B838A831AC08981882329F481E0A2
:1006B00090E09B838A8312C082E090E09B838A83D0
:1006C0000DC08981882329F481E090E09B838A838F
:1006D00004C082E090E09B838A8300008A819B8132
:1006E0008130910531F08230910531F0892B41F054
:1006F00008C01092350105C080E88093350101C023
:1007000000008A819B810F900F900F90DF91CF9115
:100710000895CF93DF9300D0CDB7DEB79A83898356
:1007200089819A81009719F0019731F00AC081E020
:1007300090E09A83898305C081E090E09A83898361
:10074000000089819A81009751F0019709F008C053
:1007500085E290E020913501FC01208301C000007A
:1007600089819A810F900F90DF91CF910895CF9357
:10077000DF931F92CDB7DEB784E290E02FEFFC014C
:10078000208385E290E0FC01108287E290E020EF78
:10079000FC01208388E290E02FE0FC012083198295
:1007A0008981282F30E0C901880F991F820F931F7C
:1007B000880F991F880F991F835E9E4FFC0111823D
:1007C00010828981282F30E0C901880F991F820F7C
:1007D000931F880F991F880F991F9C01215E3E4F20
:1007E00084E690E0A0E0B0E0F90180839183A283E9
:1007F000B3838981282F30E0C901880F991F820FA8
:10080000931F880F991F880F991F8D5D9E4FFC01C4
:1008100010821182128213828981282F30E0C9014F
:10082000880F991F820F931F880F991F880F991F98
:10083000895D9E4F29E333E0FC0131832083898168
:100840008F5F89838981282F30E0C901880F991F24
:10085000820F931F880F991F880F991F835E9E4FE9
:10086000FC01118210828981282F30E0C901880F94
:10087000991F820F931F880F991F880F991F9C0142
:10088000215E3E4F84E690E0A0E0B0E0F901808375
:100890009183A283B3838981282F30E0C901880F17
:1008A000991F820F931F880F991F880F991F8D5DC5
:1008B0009E4FFC0110821182128213828981282F9F
:1008C00030E0C901880F991F820F931F880F991F6D
:1008D000880F991F895D9E4F29E833E0FC01318321
:1008E000208364E670E080E090E00E94A7010E940F
:0808F000D501FFCFF894FFCF02
:1008F8000000000200000000670000000000010086
:08090800000002006400000081
:00000001FF
